{
  "contractName": "Storage",
  "abi": [
    {
      "inputs": [],
      "stateMutability": "nonpayable",
      "type": "constructor"
    },
    {
      "anonymous": false,
      "inputs": [
        {
          "indexed": false,
          "internalType": "uint256",
          "name": "num1",
          "type": "uint256"
        },
        {
          "indexed": false,
          "internalType": "uint256",
          "name": "num2",
          "type": "uint256"
        },
        {
          "indexed": false,
          "internalType": "string",
          "name": "operation",
          "type": "string"
        },
        {
          "indexed": false,
          "internalType": "uint256",
          "name": "result",
          "type": "uint256"
        }
      ],
      "name": "CalculationPerformed",
      "type": "event"
    },
    {
      "inputs": [],
      "name": "storedData",
      "outputs": [
        {
          "internalType": "uint256",
          "name": "",
          "type": "uint256"
        }
      ],
      "stateMutability": "view",
      "type": "function",
      "constant": true
    },
    {
      "inputs": [
        {
          "internalType": "uint256",
          "name": "x",
          "type": "uint256"
        }
      ],
      "name": "set",
      "outputs": [],
      "stateMutability": "nonpayable",
      "type": "function"
    },
    {
      "inputs": [],
      "name": "get",
      "outputs": [
        {
          "internalType": "uint256",
          "name": "",
          "type": "uint256"
        }
      ],
      "stateMutability": "view",
      "type": "function",
      "constant": true
    },
    {
      "inputs": [
        {
          "internalType": "uint256",
          "name": "num1",
          "type": "uint256"
        },
        {
          "internalType": "uint256",
          "name": "num2",
          "type": "uint256"
        }
      ],
      "name": "add",
      "outputs": [],
      "stateMutability": "nonpayable",
      "type": "function"
    },
    {
      "inputs": [
        {
          "internalType": "uint256",
          "name": "num1",
          "type": "uint256"
        },
        {
          "internalType": "uint256",
          "name": "num2",
          "type": "uint256"
        }
      ],
      "name": "subtract",
      "outputs": [],
      "stateMutability": "nonpayable",
      "type": "function"
    },
    {
      "inputs": [
        {
          "internalType": "uint256",
          "name": "num1",
          "type": "uint256"
        },
        {
          "internalType": "uint256",
          "name": "num2",
          "type": "uint256"
        }
      ],
      "name": "multiply",
      "outputs": [],
      "stateMutability": "nonpayable",
      "type": "function"
    },
    {
      "inputs": [
        {
          "internalType": "uint256",
          "name": "num1",
          "type": "uint256"
        },
        {
          "internalType": "uint256",
          "name": "num2",
          "type": "uint256"
        }
      ],
      "name": "divide",
      "outputs": [],
      "stateMutability": "nonpayable",
      "type": "function"
    },
    {
      "inputs": [],
      "name": "reset",
      "outputs": [],
      "stateMutability": "nonpayable",
      "type": "function"
    }
  ],
  "bytecode": "0x608060405234801561001057600080fd5b50600080819055506108f2806100276000396000f3fe608060405234801561001057600080fd5b50600436106100a5576000357c0100000000000000000000000000000000000000000000000000000000900480636d4ce63c116100785780636d4ce63c1461011c578063771602f71461013a578063d826f88f14610156578063f88e9fbf14610160576100a5565b8063165c4a16146100aa5780632a1afcd9146100c65780633ef5e445146100e457806360fe47b114610100575b600080fd5b6100c460048036038101906100bf91906103ab565b61017c565b005b6100ce6101cf565b6040516100db91906103fa565b60405180910390f35b6100fe60048036038101906100f991906103ab565b6101d5565b005b61011a60048036038101906101159190610415565b61026b565b005b610124610275565b60405161013191906103fa565b60405180910390f35b610154600480360381019061014f91906103ab565b61027e565b005b61015e6102d1565b005b61017a600480360381019061017591906103ab565b6102da565b005b80826101889190610471565b6000819055507f9b103eeacc9c9628d15ed9bb5d0bbd560e8af0c869c9f5f17ab1a6b5819ce5e682826000546040516101c393929190610510565b60405180910390a15050565b60005481565b80821015610218576040517f08c379a000000000000000000000000000000000000000000000000000000000815260040161020f906105a6565b60405180910390fd5b808261022491906105c6565b6000819055507f9b103eeacc9c9628d15ed9bb5d0bbd560e8af0c869c9f5f17ab1a6b5819ce5e6828260005460405161025f93929190610646565b60405180910390a15050565b8060008190555050565b60008054905090565b808261028a9190610690565b6000819055507f9b103eeacc9c9628d15ed9bb5d0bbd560e8af0c869c9f5f17ab1a6b5819ce5e682826000546040516102c593929190610710565b60405180910390a15050565b60008081905550565b6000811161031d576040517f08c379a0000000000000000000000000000000000000000000000000000000008152600401610314906107a6565b60405180910390fd5b808261032991906107f5565b6000819055507f9b103eeacc9c9628d15ed9bb5d0bbd560e8af0c869c9f5f17ab1a6b5819ce5e6828260005460405161036493929190610872565b60405180910390a15050565b600080fd5b6000819050919050565b61038881610375565b811461039357600080fd5b50565b6000813590506103a58161037f565b92915050565b600080604083850312156103c2576103c1610370565b5b60006103d085828601610396565b92505060206103e185828601610396565b9150509250929050565b6103f481610375565b82525050565b600060208201905061040f60008301846103eb565b92915050565b60006020828403121561042b5761042a610370565b5b600061043984828501610396565b91505092915050565b7f4e487b7100000000000000000000000000000000000000000000000000000000600052601160045260246000fd5b600061047c82610375565b915061048783610375565b925082820261049581610375565b915082820484148315176104ac576104ab610442565b5b5092915050565b600082825260208201905092915050565b7f6d756c7469706c69636174696f6e000000000000000000000000000000000000600082015250565b60006104fa600e836104b3565b9150610505826104c4565b602082019050919050565b600060808201905061052560008301866103eb565b61053260208301856103eb565b8181036040830152610543816104ed565b905061055260608301846103eb565b949350505050565b7f526573756c7420776f756c64206265206e656761746976650000000000000000600082015250565b60006105906018836104b3565b915061059b8261055a565b602082019050919050565b600060208201905081810360008301526105bf81610583565b9050919050565b60006105d182610375565b91506105dc83610375565b92508282039050818111156105f4576105f3610442565b5b92915050565b7f7375627472616374696f6e000000000000000000000000000000000000000000600082015250565b6000610630600b836104b3565b915061063b826105fa565b602082019050919050565b600060808201905061065b60008301866103eb565b61066860208301856103eb565b818103604083015261067981610623565b905061068860608301846103eb565b949350505050565b600061069b82610375565b91506106a683610375565b92508282019050808211156106be576106bd610442565b5b92915050565b7f6164646974696f6e000000000000000000000000000000000000000000000000600082015250565b60006106fa6008836104b3565b9150610705826106c4565b602082019050919050565b600060808201905061072560008301866103eb565b61073260208301856103eb565b8181036040830152610743816106ed565b905061075260608301846103eb565b949350505050565b7f4469766973696f6e206279207a65726f00000000000000000000000000000000600082015250565b60006107906010836104b3565b915061079b8261075a565b602082019050919050565b600060208201905081810360008301526107bf81610783565b9050919050565b7f4e487b7100000000000000000000000000000000000000000000000000000000600052601260045260246000fd5b600061080082610375565b915061080b83610375565b92508261081b5761081a6107c6565b5b828204905092915050565b7f6469766973696f6e000000000000000000000000000000000000000000000000600082015250565b600061085c6008836104b3565b915061086782610826565b602082019050919050565b600060808201905061088760008301866103eb565b61089460208301856103eb565b81810360408301526108a58161084f565b90506108b460608301846103eb565b94935050505056fea2646970667358221220c0ccd54ba61fee3a897cca7026942d58f3c37393ddbf5df1a6d6886fc886cc4b64736f6c63430008150033",
  "immutableReferences": {},
  "source": "// SPDX-License-Identifier: MIT\npragma solidity >=0.4.22 <0.9.0;\n\ncontract Storage {\n    uint256 public storedData;\n\n    event CalculationPerformed(\n        uint256 num1,\n        uint256 num2,\n        string operation,\n        uint256 result\n    );\n\n    constructor() {\n        storedData = 0; // Explicit initialization\n    }\n\n    function set(uint256 x) public {\n        storedData = x;\n    }\n\n    function get() public view returns (uint256) {\n        return storedData;\n    }\n\n    function add(uint256 num1, uint256 num2) public {\n        storedData = num1 + num2;\n        emit CalculationPerformed(num1, num2, \"addition\", storedData);\n    }\n\n    function subtract(uint256 num1, uint256 num2) public {\n        require(num1 >= num2, \"Result would be negative\");\n        storedData = num1 - num2;\n        emit CalculationPerformed(num1, num2, \"subtraction\", storedData);\n    }\n\n    function multiply(uint256 num1, uint256 num2) public {\n        storedData = num1 * num2;\n        emit CalculationPerformed(num1, num2, \"multiplication\", storedData);\n    }\n\n    function divide(uint256 num1, uint256 num2) public {\n        require(num2 > 0, \"Division by zero\");\n        storedData = num1 / num2;\n        emit CalculationPerformed(num1, num2, \"division\", storedData);\n    }\n\n    function reset() public {\n        storedData = 0;\n    }\n}",
  "sourcePath": "/home/landry/Documents/projects/web3/contract-deploy-demo/contracts/Storage.sol",
  "compiler": {
    "name": "solc",
    "version": "0.8.21+commit.d9974bed.Linux.g++"
  },
  "schemaVersion": "3.4.16",
  "updatedAt": "2025-03-10T09:42:23.760Z",
  "networkType": "ethereum",
  "devdoc": {
    "kind": "dev",
    "methods": {},
    "version": 1
  },
  "userdoc": {
    "kind": "user",
    "methods": {},
    "version": 1
  }
}